:020000040800F2
:100000000000022001360008F5300008F730000833
:10001000F9300008FB300008FD3000080000000047
:10002000000000000000000000000000FF30000899
:10003000013100080000000003310008053100080C
:100040005136000851360008513600085136000874
:100050005136000851360008513600085136000864
:100060005136000851360008513600085136000854
:100070005136000851360008513600085136000844
:100080005136000851360008513600085136000834
:100090005136000851360008513600085136000824
:1000A0005136000851360008513600085136000814
:1000B0005136000851360008513600085136000804
:1000C00051360008513600085136000851360008F4
:1000D00051360008513600085136000851360008E4
:1000E00051360008513600085136000851360008D4
:1000F00051360008513600085136000851360008C4
:1001000051360008513600085136000851360008B3
:1001100051360008513600085136000851360008A3
:1001200009310008513600085136000851360008E0
:100130005136000851360008513600085136000883
:1001400051360008513600085136000815310008B4
:100150005136000851360008513600085136000863
:100160005136000851360008513600085136000853
:1001700051360008513600085136000800000000D2
:08018000513600085136000859
:1001900010B5054C237833B9044B13B10448AFF3C1
:1001A00000800123237010BDE0010020000000004A
:1001B000103F000808B5034B1BB103490348AFF3D8
:1001C000008008BD00000000E4010020103F00088E
:1001D000034613F8012B002AFBD1181A0138704787
:1001E00001F0FF01102A2BDB10F0070F08D010F8E8
:1001F000013B013A8B422DD010F0070F42B3F6D1EC
:10020000F0B441EA012141EA014122F007047FF004
:1002100000070023F0E80256083C85EA010586EA5B
:10022000010685FA47F5A3FA87F586FA47F6A5FA97
:1002300087F68EB9EED1F0BC01F0FF0102F00702A3
:1002400032B110F8013B013A83EA010313B1F8D14E
:100250000020704701387047002D06BF354603382F
:10026000073815F0010F07D1013015F4807F02BF68
:10027000013015F4C03F0130F0BC0138704700BFB9
:1002800053B94AB9002908BF00281CBF4FF0FF31FD
:100290004FF0FF3000F07AB9ADF1080C6DE904CEF3
:1002A00000F006F8DDF804E0DDE9022304B0704751
:1002B0002DE9F0478C460D460446089E002B51D18F
:1002C0008A4217466DD9B2FA82FEBEF1000F0BD0FA
:1002D000CEF1200C01FA0EF520FA0CFC02FA0EF712
:1002E0004CEA050C00FA0EF44FEA174A250CBCFB49
:1002F000FAF81FFA87F90AFB18CC45EA0C4508FB07
:1003000009F3AB420AD9ED1908F1FF3280F02381DD
:10031000AB4240F22081A8F102083D44ED1AA4B29C
:10032000B5FBFAF00AFB105544EA054400FB09F955
:10033000A14509D9E41900F1FF3380F00A81A145F4
:1003400040F2078102383C44A4EB090440EA08402B
:100350000021002E61D024FA0EF400233460736073
:10036000BDE8F0878B4207D9002E54D0002186E8E3
:1003700021000846BDE8F087B3FA83F1002940F078
:100380008E80AB4202D3824200F2FA80841A65EB7F
:1003900003050120AC46002E3FD086E81010BDE8D2
:1003A000F08712B90127B7FBF2F7B7FA87FEBEF163
:1003B000000F34D1EB1B3A0C1FFA87FC0121B3FB71
:1003C000F2F8250C02FB183345EA03450CFB08F351
:1003D000AB4207D9ED1908F1FF3002D2AB4200F26F
:1003E000D1808046ED1AA3B2B5FBF2F002FB1055A6
:1003F00043EA05440CFB00FCA44507D9E41900F1CD
:10040000FF3302D2A44500F2B8801846A4EB0C04D6
:1004100040EA08409DE731463046BDE8F087CEF11E
:10042000200405FA0EF307FA0EF720FA04F83A0C46
:1004300025FA04F448EA0308B4FBF2F14FEA184540
:1004400002FB11441FFA87FC45EA044501FB0CF34B
:10045000AB4200FA0EF409D9ED1901F1FF3080F03A
:100460008A80AB4240F2878002393D44EB1A1FFA82
:1004700088F5B3FBF2F002FB103345EA034500FBBD
:100480000CF3AB4207D9ED1900F1FF386FD2AB4244
:100490006DD902383D44EB1A40EA01418FE7C1F1C2
:1004A000200722FA07F88B4005FA01F448EA030313
:1004B00020FA07FE4FEA134CFD404EEA040EB5FB4E
:1004C000FCF94FEA1E440CFB19551FFA83F844EA65
:1004D000054509FB08F4AC4202FA01F200FA01FA00
:1004E00008D9ED1809F1FF3043D2AC4241D9A9F146
:1004F00002091D442D1B1FFA8EFEB5FBFCF00CFB00
:1005000010554EEA054400FB08F8A04507D9E41849
:1005100000F1FF3529D2A04527D902381C4440EA12
:100520000940A4EB0804A0FB02894C45C6464D4691
:1005300015D312D056B1BAEB0E0364EB050404FADE
:1005400007F7CB401F43CC40376074600021BDE803
:10055000F0871846F8E69046E0E6C245EAD2B8EBE6
:10056000020E69EB03050138E4E72846D7E7404669
:1005700091E78146BEE7014678E702383C4445E70B
:10058000084608E7A8F102083D442BE7704700BF82
:1005900038B50E4A0E4B054618784FF47A73B3FB04
:1005A000F0F31068B0FBF3F000F0AAF8044658B975
:1005B0000F2D09D8024629464FF0FF3000F05EF8B3
:1005C000044B20461D6038BD012038BD18010020B5
:1005D000000000200400002008B50B4B1A6842F40C
:1005E00000721A601A6842F480621A601A6842F453
:1005F00080721A60032000F02FF80020FFF7C8FF78
:1006000002F05CFD002008BD003C0240034A044BA0
:1006100011681B780B441360704700BF4C02002028
:1006200000000020014B1868704700BF4C020020FA
:1006300038B50446FFF7F6FF631C1CBF054B1B785B
:10064000054618BFE418FFF7EDFF401B8442FAD8B7
:1006500038BD00BF00000020074AD36823F4E063E0
:100660001B041B0C43F0BF63000243F4003300F48F
:10067000E0600343D360704700ED00E0174B30B5F6
:10068000DC68C4F30224C4F10703251D042B28BF32
:100690000423062D4FF0010505FA03F303F1FF33A0
:1006A0008CBF033C00241940A14005FA04F4013C2E
:1006B0002240002842EA01024FEA0212ADBF00F1D7
:1006C000604000F00F00064B00F56140B5BFD2B2AC
:1006D000D2B21A5480F8002330BD00BF00ED00E014
:1006E00014ED00E0002808DB4209012300F01F00A0
:1006F00003FA00F0014B43F82200704700E100E0EC
:100700000138B0F1807F0AD2064B074A5860F021C9
:1007100082F823100020072298601A607047012099
:10072000704700BF10E000E000ED00E00368DAB2BF
:1007300023F47F7323F003031821103AB2FBF1F284
:100740000449032A88BF0433895C8365C165806DD1
:10075000704700BF283F000870B50446FFF762FFEE
:100760000546002C71D0002384F83430226802231F
:1007700084F83530136823F00103136021680B6897
:10078000D8073CD40B68324D6268A0691D40A3684D
:100790001343E26813432269134362691343E26916
:1007A00003431343226A1343626A042A43EA05039C
:1007B00001BF266BE56A35432B430B604B69042A66
:1007C00023F0070343EA02030BD1A26AE56A13434D
:1007D0003DB1F8B9012A2DD001D3022A01D1EA0195
:1007E0002BD44B612046FFF7A1FFE26D3F239340DE
:1007F000836000200123606584F8353070BDFFF709
:1008000011FF401B0528B9D920236365032084F814
:10081000350070BDB0F5005F13D1032AE1D801A007
:1008200050F822F03B080008DF0700083B080008EA
:1008300035080008B5F1C07FD3D14023636501209E
:10084000E5E7022AF9D9032AC8E7012070BD00BFF5
:100850003F8010F070B590F83440012C36D0012460
:1008600080F8344090F83540866D012C4FF000053B
:100870004FF0020428D180F83540046845652568AA
:1008800025F48025256063608368402B0EBFA2603D
:10089000A160E260C26D08BFE1603F239340B36096
:1008A000236843F016032360636943F080036361A8
:1008B000036C1BB1236843F008032360236843F0F3
:1008C00001032360002070BD80F83450022070BD09
:1008D000F7B5002301935A4B856D1F68C36D2E68D1
:1008E00008229A40164204460CD001680868400766
:1008F00008D5086820F004000860AA60626D42F024
:100900000102626501229A40164208D021684969B5
:10091000090641BFAA60626D42F0020262650422CC
:100920009A40164208D021680968880741BFAA602A
:10093000626D42F00402626510229A40164210D0A5
:100940002368196809070CD5AA601A68500335D5C1
:100950001B68190301D4236C00E0A36C0BB1204683
:100960009847E16D20228A40164238D023681868E3
:10097000C60634D5AA6094F83520052A1A6825D110
:1009800022F016021A605A6922F080025A61226C23
:100990000AB9A26C1AB11A6822F008021A603F2341
:1009A0008B40AB60002384F83430012384F8353069
:1009B000236D0BB12046984703B0F0BD1A68D205ED
:1009C0005EBF1A6822F008021A60C4E7500328D5F7
:1009D0001B68190332D4636C0BB120469847636DD2
:1009E000002BE9D0636DDA0719D50523226884F856
:1009F0003530136823F0010313604FF41653B7FB2F
:100A0000F3F7019B01339F42019302D31368DB0785
:100A1000F7D4002384F83430012384F83530E36CB4
:100A2000C7E71A6812F4807208D1196821F0100122
:100A30001960012384F8342084F83530E36BCBE768
:100A40001801002090F83430012B10B504461FD057
:100A5000012380F8343090F83500984213D10529ED
:100A600005D8DFE801F00306080A0C0EE263002057
:100A70000AE02264FBE76264F9E7A264F7E7E26454
:100A8000F5E72265F3E71846002384F8343010BDFB
:100A9000022010BD2DE9F04F85B00B68DFF8AC8166
:100AA000684ADFF8AC91019300234FF0010E019CDE
:100AB0000EFA03FE0EEA0406B64540F0AE804C681E
:100AC00024F01007022F16D14FEAD30A00EB8A0A4E
:100AD00003F0070BDAF820504FEA8B0B4FF00F0CA6
:100AE0000CFA0BFC25EA0C0C0D6905FA0BF545EA2E
:100AF0000C05CAF820504FEA430A0325D0F800B08D
:100B000005FA0AF5ED4304F0030C0BEA050B0CFAA9
:100B10000AFC013F4CEA0B0C012FC0F800C011D8B1
:100B2000876807EA050BCF6807FA0AFC4CEA0B074F
:100B30008760476827EA0E0EC4F300179F4047EA14
:100B40000E074760C7683D408F6807FA0AF73D43C4
:100B5000C560E50061D54FF0000BCDF80CB0D8F8BA
:100B60004470394D47F48047C8F84470D8F8447051
:100B700007F480470397039F23F0030707F180479B
:100B800007F59C3703F0030CD7F808A04FEA8C0C4C
:100B90004FF00F0E0EFA0CFEA8422AEA0E0E43D0BA
:100BA00005F58065A84241D005F58065A8423FD093
:100BB00005F58065A8423DD005F58065A8423BD08B
:100BC00048453BD005F50065A84239D005F580655C
:100BD000A84214BF0825072505FA0CF545EA0E05BD
:100BE000BD601568F74314F4803F0CBF3D403543AA
:100BF0001560556814F4003F0CBF3D403543556007
:100C0000956814F4801F0CBF3D4035439560D5684E
:100C1000A40254BF3D403543D5600133102B7FF40F
:100C200044AF05B0BDE8F08F5D46D5E70125D3E7B9
:100C30000225D1E70325CFE70425CDE70525CBE73E
:100C40000625C9E7003C0140000002400038024090
:100C5000001402400AB1816170470904FBE743694F
:100C600031EA030308BF090481617047F0B5044607
:100C70008BB060B390F8BD33056803F0FF021BB979
:100C800080F8BC2302F0F0FA032384F8BD33EB6B49
:100C9000254613F4807355F8100B08BF236100F04C
:100CA000B9FF0FCD6E460FC60FCD0FC695E80300F6
:100CB00086E803002546271D97E80E0055F8100B1F
:100CC00000F0EEFE064620B1022384F8BD33012574
:100CD00050E00146206800F0A3FF3046D4F804E05D
:100CE0001C264FF0010C0146C2B2964500F10100EE
:100CF0001CD800231C261946D8B2864503F10103EF
:100D000022D80FCD6E460FC60FCD0FC695E8030053
:100D100086E8030097E80E00206800F0C3FF012377
:100D2000054600B3022284F8BD23D0E706FB024348
:100D300083F83DC083F83C20A3F8422083F83F109D
:100D4000596499641965CFE706FB004282F8FD11EA
:100D500082F8FC0182F8FF11C2F80412C2F80812EE
:100D6000C2F81012C8E784F8380084F8BD33206850
:100D700001F0EAFA28460BB0F0BD90F8BC33012B25
:100D800010B5044616D00123006884F8BC33A36A6A
:100D9000012B06D1A369012B1EBF836B43F4803363
:100DA000836301F0C5FA206800F02EFF002084F86C
:100DB000BC0310BD022010BD2DE9F04F066887B0BE
:100DC0000446304601F0FBFA0290002840F02281F0
:100DD000206801F0C5FA002800F01C81206801F0AD
:100DE000BFFA830748BF2268206842BF536903F0F7
:100DF0000203536101F0B4FA070300F10E81206889
:100E000001F0AEFA45030CD5206801F0B5FA25468D
:100E1000834606F5106A4FF00009BBF1000F40F061
:100E2000BC81206801F09CFA002815DAD6F8043855
:100E300023F00103C6F8043894F8F433012B40F092
:100E40004182002184F8F413204600F0BFFB2268A1
:100E5000536903F000435361206801F081FA0005F3
:100E60000BD5D6F80838D90702D5204602F06CFA1F
:100E70002268536903F400635361206801F070FA3B
:100E8000C20435D506F500656B68206823F00103C0
:100E90006B60102100F0DCFE606806F510634FF611
:100EA0007F31029A824240F01182EB6943F00113D4
:100EB000EB61236B002B00F01B82D5F8843043F0EC
:100EC0000B03C5F884306B6C43F00B036B64D6F8EE
:100ED0000038217C206823F4FE63C6F8003804F54E
:100EE000717201F08BFA2268536903F480535361E5
:100EF000206801F035FA830416D5206801F063FA02
:100F0000206800F093FFE060256800F0ABFD227BD5
:100F10000146284600F004FE204602F002FA22684C
:100F2000536903F400535361206801F019FAC706AE
:100F30002AD52268936923F010039361356AC5F3BB
:100F40004343022B05F00F0740F0DD8147F6F073B5
:100F50001D4214D01C2303FB0747C5F30A152A467C
:100F6000D7F80812304601F06DF9D7F808322B4453
:100F7000C7F80832D7F814321D44C7F81452226853
:100F8000936943F010039361206801F0E9F90607C3
:100F900007D5204602F0C1F92268536903F008031F
:100FA0005361206801F0DCF9C50208D50021204614
:100FB00002F0EAF92268536903F480135361206850
:100FC00001F0CEF9800208D50021204602F0D8F9C0
:100FD0002268536903F400135361206801F0C0F9DB
:100FE000410007D5204602F0D3F92268536903F087
:100FF00080435361206801F0B3F942070AD52368A2
:101000005D686B0702D5204602F0C6F923685A686E
:1010100015435D6007B0BDE8F08F2068DFF808B3C6
:1010200001F0A2F906F530658246A0460027BAF124
:10103000000F3FF4E4AE1AF0010F00F0A780FAB2FF
:1010400011462068039201F09FF910F0010F8146CC
:10105000039A4CD00123AB6023682069D3F840E0A9
:1010600003F5306303EB47130128996854D108074F
:1010700014D5DE4504D90A0444BF4FF400429A60F7
:101080002046039302F032F904F5717201212068C1
:1010900001F0B4F9039B08229A6028E0880601D584
:1010A0002022F9E711F0280F21D1DE4504D90904E7
:1010B00002D54FF40042EFE71B69D8F80412C3F3DE
:1010C0001203CB1AC8F81432D8F808321944C8F8F9
:1010D00008122046114602F00FF947B9D4F8103231
:1010E0002BB904F571720121206801F087F919F01C
:1010F000080F33D0236820691A6C03F5306303EBC3
:1011000047130128996815D15A4516D9090444BFD7
:101110004FF40041996010E08248864505D10804EB
:10112000C7D4880644BF202199601146204602F0AA
:10113000E3F8DCE77B488242E8D02046039202F0E5
:10114000D5F8039A5A4507D92169012904D104F534
:101150007172206801F052F90823AB6019F0100F8A
:101160001CBF1023AB6019F0200F09D021690129A1
:1011700004D104F57172206801F040F92023AB60BE
:1011800019F4005F1CBF4FF40053AB6001374FEA06
:101190005A0A203508F11C0849E71BF0010F00F03E
:1011A00089805FFA89F319462068039301F0F5F806
:1011B000C307074624D5D6F834380399012009F02F
:1011C0000F0200FA02F223EA0203C6F83438236958
:1011D000CAF80800834201BFAB6C6A6C9B18AB6411
:1011E000204602F092F82169012909D1B9F1000FD6
:1011F00006D1236D23B904F57172206801F0FEF861
:10120000380744BF0823CAF80830F90644BF102342
:10121000CAF808307A0644BF4023CAF80830BB0732
:1012200044BF0223CAF808303F0643D56B6D2F6DCB
:10123000BB423FD8FF1A6B6C226804929F4228BFC2
:101240001F4602F51063033703EB4913BF080593EC
:10125000059B6A6D9B699BB2BB422B6D28D3934261
:1012600026D963B9049B09F00F01D3F83428012073
:1012700000FA01F122EA0102C3F834281AE0A3EBD4
:1012800002086B6C039A0498984528BF9846237C03
:101290000093A96C1FFA88F300F0D2FEAB6C4344B4
:1012A000AB646B6D08F103074344BF086B65CFE780
:1012B0009342D7D909F101094FEA5B0B1C350AF1BA
:1012C000200AAAE5204602F057F8C0E599601A689E
:1012D00022F400121A60C3F80812D3F8002222F494
:1012E0000012C3F80022029A013202922033D8E59C
:1012F0006B6943F4005343F02B036B612B6943F09C
:101300000B032B61E3E5062B7FF439AE082204F5CD
:101310007171304600F096FF1C2303FB0747C5F3AD
:101320000A1527E60A31544F0A30544F90F8BC236F
:10133000012A10B504460BD0012280F8BC2384F8A2
:101340003810006800F0E4FF002084F8BC0310BDF2
:10135000022010BD70B5044601F00F0011F0800F9F
:101360004FF01C06C5B206FB054115BF06FB05453F
:1013700006FB05453C3101F5FE7115BF012600262F
:1013800085F83D6085F8FD618A604A78CB70C0B20F
:10139000087002B1C880022B04BF00230B7194F8BF
:1013A000BC33012B09D0012384F8BC33206800F042
:1013B00048FD002084F8BC0370BD022070BD01F020
:1013C0000F03DAB210B504461C2011F0800F00FBA9
:1013D000024119BF3C3100FB024200FB024201F511
:1013E000FE7115BF0120002082F83D0082F8FD014A
:1013F0000B7094F8BC33012B09D0012384F8BC3363
:10140000206800F061FD002084F8BC0310BD0220BC
:1014100010BD38B501F00F051C2404FB050104FBC9
:10142000050401F5FE71C4F810320023C4F8082247
:10143000C4F8143284F8FD3184F8FC510369006863
:10144000012B08BFC4F80C22DAB21DB900F06EFD02
:10145000002038BD00F008FEFAE71C2301F00F0160
:1014600003FB0101D1F81402704738B501F00F05F4
:101470001C2404FB050104FB05043C312365002307
:1014800063650123A26484F83D3084F83C5003690D
:101490000068012B08BFE264DAB21DB900F046FD16
:1014A000002038BD00F0E0FDFAE738B5436801F0F0
:1014B0000F059D4204462ED811F0800F4FF01C02FC
:1014C0001FD002FB050102FB050301223C3381F81A
:1014D0003D2001229A701D7094F8BC1391421CD0DB
:1014E00084F8BC231946206800F0BAFE2DB904F533
:1014F0007172217C206800F081FF002084F8BC0319
:1015000038BD02FB010302FB0101002203F5FE735B
:1015100081F8FD21DDE7012038BD022038BD38B556
:10152000436801F00F029A42044626D81C2311F0AA
:10153000800F03FB020119BF3C3103FB020301F5DD
:10154000FE7103FB024314BF012000204FF0000591
:1015500014BF83F83D0083F8FD018D700A7094F884
:10156000BC33012B0BD0012384F8BC33206800F07E
:10157000A4FE84F8BC53284638BD012038BD0220A3
:1015800038BD70B50468636A21B943EA0243A362B7
:10159000002070BDA06A4D1E03EB10430020461CC6
:1015A000C0B2854206D83F3104EB810443EA0243CE
:1015B0006360EDE7403004EB8000406803EB1043CC
:1015C0003046ECE70368002059627047704700001E
:1015D0002DE9F341044618B9012002B0BDE8F081BD
:1015E0000368DD0710D42368980758D423681A07C6
:1015F00000F19A8023685B0700F1B880A269002A95
:1016000040F019810020E8E7A64B9A6802F00C022E
:10161000042A07D09A6802F00C02082A0AD15B68F3
:10162000590207D59F4B1B689A03DCD56368002BD2
:10163000D9D1D1E763689B4DB3F5803F11D12B68B9
:1016400043F480332B60FEF7EDFF964D06462B6882
:101650009B03C8D4FEF7E6FF801B6428F7D903205C
:10166000BBE7B3F5A02F04D12B6843F480232B6094
:10167000E5E72A6822F480322A602A6822F4802270
:101680002A60002BDFD1FEF7CDFF06462B689F03B3
:10169000A9D5FEF7C7FF801B6428F7D9DFE7814B88
:1016A0009A6812F00C0F07D09A6802F00C02082A10
:1016B00011D15B685E020ED47A4B1A68950702D589
:1016C000E268012A88D11A68216922F0F80242EA08
:1016D000C1021A608AE7E268734BB2B101221A6054
:1016E000FEF7A0FF6F4D06462B68980707D52B68BD
:1016F000226923F0F80343EAC2032B6076E7FEF782
:1017000091FF801B0228EFD9A9E71A60FEF78AFF34
:10171000644D06462B6899077FF568AFFEF782FF98
:10172000801B0228F6D99AE76269604B7AB10122E0
:101730001A60FEF777FF5B4D06466B6F9F073FF51C
:1017400059AFFEF76FFF801B0228F6D987E71A60B2
:10175000FEF768FF534D06466B6F98077FF54AAF5B
:10176000FEF760FF801B0228F6D978E74D4B1A6C14
:1017700012F0805228D101921A6C42F080521A6401
:101780001B6C03F080530193019B0126484D2B688D
:10179000D9051BD5A368434D012B27D12B6F43F0EF
:1017A00001032B67FEF73EFF3E4D074641F28838A6
:1017B0002B6F9B0739D5002E3FF420AF394A136CAD
:1017C00023F08053136419E70026DFE72B6843F406
:1017D00080732B60FEF726FF07462B68DA05D9D405
:1017E000FEF720FFC01B0228F7D938E7052B04D1EC
:1017F0002B6F43F004032B67D0E72A6F22F001021E
:101800002A672A6F22F004022A67002BCAD1FEF74A
:1018100009FF41F2883807462B6F9807CBD5FEF7B2
:1018200001FFC01B4045F7D919E7FEF7FBFEC01BBF
:101830004045BDD913E71B4DAB6803F00C03082BE3
:101840003FF4CAAE1B4E0023022A336034D1FEF7A8
:10185000E9FE07462B6899011ED4226AE369134307
:10186000626A43EA8213E26A43EA0263A26A0D4CA7
:101870005208013A43EA02436B6001233360FEF7EA
:10188000D1FE054623689A013FF5BCAEFEF7CAFEBD
:10189000401B0228F6D9E2E6FEF7C4FEC01B022870
:1018A000D8D9DCE60038024000004742800E4742AB
:1018B0000070004060004742FEF7B4FE04462B680B
:1018C0009B017FF59FAEFEF7ADFE001B0228F6D907
:1018D000C5E600BF134908B58B6803F00C03042B61
:1018E00003D0082B03D0104808BD104808BD4A6833
:1018F0004B68496813F4800314BF0C480A48C1F3CD
:10190000881118BF002302F03F02A1FB0001FEF77F
:10191000B7FC044B5B68C3F3014301335B00B0FBCE
:10192000F3F008BD003802400024F40000127A00F1
:101930002DE9F0410D46044610B90120BDE8F081C3
:10194000444B1A6802F00F028A4228D321688F079D
:101950002DD4C80740D43F4B1A6802F00F029542BD
:1019600066D3226851076CD4130707D53A4A216918
:10197000936823F4604343EAC1039360FFF7AAFF2F
:10198000354B364A9B68C3F30313D35CD840344BC2
:1019900018600020FEF7FCFD0020BDE8F081CAB20F
:1019A0001A701B6803F00F039942C6D1CEE72A4B89
:1019B00011F0040F1EBF9A6842F4E0529A600E07BD
:1019C00042BF9A6842F460429A609A68A06822F026
:1019D000F00202439A60BCE762681F4B012A1DD1E6
:1019E0001B6813F4003FA8D01B4EB36823F0030319
:1019F0001343B360FEF716FE41F288380746B3681A
:101A0000626803F00C03B3EB820FA4D0FEF70AFE6A
:101A1000C01B4045F3D90320BDE8F081911E012988
:101A20001B6802D813F0007FDDE713F0020FDAE73E
:101A3000EAB21A701B6803F00F039D427FF47DAF7A
:101A40008FE70549E0688B6823F4E05303438B601C
:101A50008AE700BF003C024000380240363F0008E1
:101A600018010020014B1868704700BF18010020C2
:101A70000A4B013B01D1032070470269002AF8DAC2
:101A80000369064A43F001030361013AF3D0036995
:101A900013F00103F9D11846704700BF410D030050
:101AA00084B038B505AD85E80E000A9B012B0446CD
:101AB00025D1836B23F480338363C36823F48403C9
:101AC00023F04003C360C36823F44013C360119B39
:101AD000012B02BFC36843F48013C360FFF7C8FF44
:101AE000089B012B07D1A36843F00603A360A368FA
:101AF00043F02003A360BDE8384004B07047C368DA
:101B000043F04003C360FFF7B3FF0E9B23B9A36B01
:101B100043F48033A363E3E7A36B23F48033F9E753
:101B2000022A58D12E4B2F4A0B44934247D92E4BB1
:101B30002E4A0B44934244D9A1F574032C4AA3F5D1
:101B4000105393423FD9A1F1837302F5C332A3F539
:101B5000E743A032934238D9264B274A0B4493429D
:101B600035D9264B02F592220B4402F57872934246
:101B70002FD9234B02F5C3220B4402F52072934266
:101B800029D9A1F1B77302F5B712A3F5585302F59D
:101B90005872934221D91B4B02F512220B4402F5D5
:101BA000F862934294BF07230623C26822F470525E
:101BB000C260C26842EA8323C360002070470F23DB
:101BC000F3E70E23F1E70D23EFE70C23EDE70B23FB
:101BD000EBE70A23E9E70923E7E70823E5E700BF86
:101BE000405327FFFF340C00401E1BFF3F420F00F5
:101BF0007F4F120060B6E5FE5FE3160000D3CEFE15
:101C0000C05BB3FEE05459FE836843F00103836078
:101C100000207047836823F0010383600020704731
:101C200008B5C368012923F0C043C36008D1C36865
:101C300043F00053C3603220FEF7FAFC002008BDD9
:101C400019B9C36843F08043F4E7012008BD0000E0
:101C5000890141F02001064A0161013A05D003697A
:101C600013F02003F9D1184670470320704700BFD6
:101C7000410D03001023064A0361013A05D00369B0
:101C800013F01003F9D1184670470320704700BFC6
:101C9000410D0300D0F800381943C0F800180020A7
:101CA0007047000084B02DE9F047044609A880E899
:101CB0000E0000230C9F139E8846194603F1400234
:101CC00004EB820201330F2B5160F7D1002E73D148
:101CD000A36B43F40013A363A36B23F40023A36358
:101CE000A36B23F48023A3630023C4F8003ED4F83D
:101CF0000038C4F800380E9B012B04F5006565D14F
:101D00000B99002960D12046FFF7C4FF102120461F
:101D1000FFF79EFF01462046FFF7ACFF002857D192
:101D2000081C18BF012000232B6104F510626B61B1
:101D30001946EB614FF0904E4FF0006C4FF67F3933
:101D4000434547D1002104F530628E464FF0904C58
:101D50004FF000684FF67F398B424ED12B69012F2F
:101D600023F480732B6107D12E4B2B632B6B43F431
:101D7000803343F003032B630023A3616FF08043A0
:101D800063611FB9A36943F01003A361A269264BE5
:101D90001343A3610F9B1BB1A36943F00803A36125
:101DA000012E01BFA36943F0804343F00403A36104
:101DB000BDE8F04704B07047236823F400132360A4
:101DC000A36B43F400238EE719469CE703219AE7AF
:101DD0000120A8E7D2F800A0BAF1000F0BDA3BB956
:101DE000C2F800C011610133C2F808902032A7E7A1
:101DF000C2F800E0F6E71160F4E7D2F800A0BAF10B
:101E0000000F0CDA41B9C2F80080C2F810E00131CD
:101E1000C2F8089020329FE7C2F800C0F5E7C2F888
:101E200000E0F2E70001800000383C80D0F808387C
:101E300013F0060004D013F0020F14BF02200F208D
:101E4000704770B54A780C78D0F81C6800F50063CC
:101E5000012A04F00F051BD1AA40324300EB4410C5
:101E6000DA61D0F800391A0410D48B68C978D0F838
:101E70000029C3F30A0343F0805343F4004343EAC9
:101E8000814343EA84531343C0F80039002070BDF6
:101E90004FF48032AA40324300EB4410DA61D0F8AC
:101EA000003B1B04F2D48B68C978D0F8002BC3F335
:101EB0000A0343F0805343F4004343EA814313434E
:101EC000C0F8003BE2E7000030B54B780C78D0F862
:101ED0003C1800F50062012B04F00F0510D1AB4057
:101EE000DB431940D163D16900EB44100B40D3614F
:101EF000D0F800290B4B1340C0F80039002030BD4A
:101F00004FF48033AB40DB431940D163D16900EB20
:101F100044100B40D361D0F8002B034B1340C0F8A2
:101F2000003BEBE7007833EC0078F3EFF0B54B784B
:101F30000C784E69414F012B4FF0200359D113FB10
:101F4000040336BBD3F8105925F0FF5525F4C0150E
:101F5000C3F81059D3F8105945F40025C3F81059A7
:101F6000D3F810592F40C3F81079012A4FF02003FD
:101F700029D10A691AB113FB0403C3F8142900EB31
:101F80004410D0F8002942F00442C0F80029002093
:101F9000F0BD03F510631D692F401F611D6925F019
:101FA000FF5525F4C0151D618D68AE4288BF4D6197
:101FB0001D6945F400251D614D691E69C5F31205B3
:101FC00035431D61D1E713FB0404D4F8003943F015
:101FD0000443C4F800394B69002BD8D00A78D0F8F4
:101FE000343802F00F0101228A401A43C0F8342825
:101FF000CDE713FB040000F530631C6927401F6127
:102000001C6924F0FF5424F4C0141C618C6806B1D0
:102010004C611D6945F400251D611D69C4F312045E
:102020002C43012A1C6102D1CA6802B15A61D0F85E
:10203000003B43F00443C0F8003BA8E70000F8FF72
:1020400010B59DF808404CB9033300EB023023F083
:10205000030300F580500B44994201D1002010BDCC
:1020600051F8042B0260F7E7F7B54B780E78734F01
:10207000012B4FF020044B6914FB060440F09880BC
:10208000002B38D104F51065D4F8104924F0FF5422
:1020900024F4C0142C612C6944F400242C612C69B4
:1020A00027402F61012A4FF0200454D10B691BB146
:1020B00014FB0604C4F81439CB78012B10D1D0F8E6
:1020C000083813F4807F4FF0200313FB0603D3F886
:1020D00000290CBF42F0005242F08052C3F80029A0
:1020E00000EB4610D0F8003943F00443C0F8003943
:1020F000002003B0F0BDD4F810592F40C4F8107977
:10210000D4F810598F6825F0FF5525F4C015C4F890
:102110001059DD19013DB5FBF7F7494DD4F810E929
:1021200005EAC74545EA0E05C4F81059D4F81079F8
:10213000C3F312053D43C4F81059CD78012D04F5C1
:102140001064AFD1256925F0C0452561256945F0AA
:1021500000552561A6E714FB0604D4F8005945F0A4
:102160000445C4F80059CD78012D0CD0002BBFD008
:102170000B78D0F8344803F00F0201239340234337
:10218000C0F83438B4E7D0F8085815F4807FD4F894
:1021900000590CBF45F0005545F08055C4F8005972
:1021A0000C7800929BB22246C968FFF749FF9FE76F
:1021B00004F5306635692F403761356925F0FF55E4
:1021C00025F4C01535618D6823BB3369C5F312054D
:1021D0001D433561336943F40023012A336102D181
:1021E000CB6803B17361CB78012B0CD1D0F80838E0
:1021F00013F4807FD4F8003B0CBF43F0005343F04E
:102200008053C4F8003BD4F8003B43F00443C4F8C7
:10221000003B6DE70A4FD6F810E02B44013BB3FBBF
:10222000F5F307EAC34747EA0E0737619BB2376900
:102230006B43C3F312033B43CFE700BF0000F8FF3B
:102240000000F81F033222F003020A4400F5805018
:10225000914201D108467047036841F8043BF7E713
:102260004B780A78012B4FF0200313FB020012D1A8
:10227000D0F80039002B06DB2AB1D0F8003923F062
:102280008043C0F80039D0F8003943F40013C0F897
:10229000003900207047D0F8003B002B06DB2AB144
:1022A000D0F8003B23F08043C0F8003BD0F8003B5F
:1022B00043F40013C0F8003BEBE74B780A78012B9E
:1022C0004FF0200313FB020011D1D0F8003923F4A2
:1022D0000013C0F80039CB78023B012B05D8D0F8A9
:1022E000003943F08053C0F8003900207047D0F81F
:1022F000003B23F40013C0F8003BCB78023B012BDA
:102300009EBFD0F8003B43F08053C0F8003BECE7A1
:10231000D0F8003823F4FE63C0F80038D0F8003855
:10232000090101F4FE611943C0F80018002070474C
:1023300008B5D0F8043823F00203C0F804380320AD
:10234000FEF776F9002008BD08B5D0F8043843F050
:102350000203C0F804380320FEF76AF9002008BD24
:102360004269806910407047D0F8183800F5006065
:10237000C0691840000C7047D0F8183800F50060AC
:10238000C069184080B2704700EB411100F5006051
:10239000D1F8082B40691040704710B5D0F81048AC
:1023A000D0F8343800EB411001F00F01CB4000F5BC
:1023B0001060DB018068DBB22343184010BD406928
:1023C00000F001007047D0F8003923F4FF6323F0D8
:1023D0000703C0F8003900F500639A6802F00602AE
:1023E000042A02BFD0F8002942F00302C0F80029F5
:1023F0005A6842F480725A600020704710B5164B3C
:10240000046C9C4203D9D0F8003B002B21DB002454
:10241000C0F8104BD0F8104B44F40024C0F8104B17
:10242000D0F8104B44F01804C0F8104BD0F8104B03
:10243000012944F0C044C0F8104B08BFC0F8142B69
:1024400000F5306302BFD0F8003B43F08023C0F8B2
:10245000003B002010BD00BF0A30544FD0F894322A
:1024600010B5D0F890425BB194F80002FF2807D075
:102470009B6894F8012221469847FF2384F8003294
:10248000002010BD43230380004870474000002017
:1024900043230380004870478400002043230380C7
:1024A00000487047D40000200A230380004870478A
:1024B000C800002038B50546D0F8904201F024F855
:1024C000D5F89032C4F80C024BB1D5F89432D4F858
:1024D0000402DB6804F503719847002038BD022030
:1024E00038BDF8B5D0F89062D6B1142303FB0103D0
:1024F000DD698DB1D0F898421C2707FB0142526C70
:10250000B5FBF2F402FB145434B9DC6122462346D5
:1025100000F0DEFF2046F8BD0020C6F81402F8BD2A
:102520000220F8BD2DE9F7430A78D0F890724FF0F9
:10253000000812F0600405460E468DF80580ADF8DF
:10254000068028D0202C47D1CC884B78E4B11206E5
:1025500011D5D0F894223946D2F808901846224670
:10256000C847F2883946284600F04AFC44462046CF
:1025700003B0BDE8F08387F8003287F801422246B5
:10258000394600F052FCF1E7D0F8942218469568DD
:102590002246A847EBE74F780A2F0DD00B2F15D016
:1025A000D7B990F87432032B14D102220DF1060131
:1025B00000F026FC3C46DAE790F87432032B09D190
:1025C00001220DF1050100F01BFCD0E790F87432F8
:1025D000032BCCD03146284600F0EBFB0224C6E7A3
:1025E00038B504460025812100F026FF0121E5626F
:1025F000204600F021FFC4F858518221204600F007
:102600001BFFD4F8903225644BB1D4F894325B6848
:102610009847D4F8900201F04FF8C4F89052002087
:1026200038BD037C2DE9F0410446CBBB4FF4007369
:1026300002228121012500F0EFFEE5624FF40073D4
:1026400029460222204600F0E7FEC4F8585108232C
:10265000032282212046012500F0DEFE25644FF48E
:10266000077001F021F80646C4F8900258B3D4F878
:1026700094321B68984794F810800027C6F81472AB
:10268000C6F81872B8F1000F13D14FF40073D6F8E2
:1026900004222946204600F029FF4046BDE8F0818B
:1026A000402302228121012500F0B6FEE56240238D
:1026B000C6E74023D6F804222946204600F016FF3C
:1026C0003846BDE8F0812846BDE8F08119B1C0F870
:1026D00094120020704702207047D0F890320020FA
:1026E000C3F80812C3F810227047D0F890320020C7
:1026F000C3F804127047D0F8902210B582B1D2F816
:102700001442012374B9C2F81432D2F810320363B0
:10271000D2F808229BB2812100F0DAFE204610BDDB
:10272000022010BD184610BDD0F8902210B562B13D
:10273000047C44B94FF40073D2F80422012100F064
:10274000D5FE002010BD4023F6E7022010BD08B5DD
:1027500080B1D0F88C3213B10023C0F88C3209B1AB
:10276000C0F88812012380F87432027000F018FE5D
:10277000002008BD022008BD19B1C0F88C1200204D
:1027800070470220704708B500F038FE002008BDF1
:1027900008B5D0F88C320BB9022008BD1B689847E9
:1027A0000028F9D108BD08B5D0F88C325B6898478D
:1027B000002008BD38B5044600F52075284600F015
:1027C000E4FA012394F88012C4F86C32B4F886322B
:1027D000C4F8703201F01F03012B0ED007D3022B77
:1027E00010D001F08001204600F034FE03E02946BD
:1027F000204600F003F9002038BD2946204600F0AD
:1028000017FAF8E72946204600F037FAF3E770B5E3
:102810000546164649BBD0F86C32032B1ED1D0F8C2
:102820004C31D0F8502193420BD99B1A9A42C0F8F0
:102830004C318CBF9AB292B2314600F005FB0020B9
:1028400070BDD0F88C321B6923B190F87422032A32
:1028500000D19847284600F0FFFAF0E7052BEED1AB
:10286000C5F86C1200F0F6FDE9E7D0F88C329B69F0
:102870002BB190F87422032A01D19847DFE7022098
:1028800070BD70B5134604460E46002948D1D0F8F5
:102890006C22022A3DD1056A426A954214D9AA1ACD
:1028A0000262194692B200F0B8FA33461A46194647
:1028B000204600F01BFE94F87832012B4FF0000008
:1028C0003AD184F8780270BDC369B3FBF2F502FB1C
:1028D000153565B99A420AD8D0F87022934206D2CB
:1028E0002A4600F09AFAC4F870522B46DEE7D4F874
:1028F0008C32DB682BB194F87422032A01D1204674
:1029000098478021204600F0A5FD204600F0AFFA50
:10291000D1E732F00403CED1802100F09BFDCAE75D
:10292000D0F88C325B6933B190F87422032A02D15B
:102930009847002070BD022070BD70B5002204468B
:10294000114601254026402300F066FD33468021D4
:10295000C4F84451C4F850610022204600F05CFDE8
:10296000D4F89032A5610021666284F87452C4F8EC
:102970006C126160C4F87C1223B1D4F88C3220460A
:102980005B689847002070BD01740020704790F884
:10299000743280F87532042380F874320020704756
:1029A00090F8753280F874320020704708B590F8BE
:1029B0007422032A04D1D0F88C32DB6903B1984722
:1029C000002008BD0020704700207047002070479D
:1029D00008B5012280F87422D0F88C22017952685F
:1029E0009047002008BD10B58021044600F032FD5C
:1029F00020460021BDE8104000F02CBD37B50B7813
:102A000003F06003202B04460D4614D0402B12D057
:102A1000002B40F08D804B78092B00F28880DFE896
:102A200013F0DF00F9008600F20086007A00130040
:102A30008600CA009800D4F88C3229469B6820464C
:102A40009847002003B030BD4B881A0A013A062A85
:102A50006DD8DFE802F004202D6C6C4D5600D0F8E4
:102A600088321B68207C0DF106019847BDF80620CE
:102A700052B1EB8843B19A4228BF1A46014620461C
:102A8000ADF8062000F0BCF9EB88002BD9D1204628
:102A900000F0E2F9D5E7027CD0F88C3232B99B6ABB
:102AA0000DF10600984702234370DFE7DB6AF7E782
:102AB000DBB2052B3BD8DFE803F003070B0F13173E
:102AC000D0F888325B68CDE7D0F888329B68C9E7D8
:102AD000D0F88832DB68C5E7D0F888321B69C1E7D7
:102AE000D0F888325B69BDE7D0F888329B69B9E7D6
:102AF000037CE3B9D0F88C320DF106005B6B98478C
:102B0000B4E7037C9BB9D0F88C320DF106001B6B47
:102B100098470723C8E78B884BB9CB883BB94D88CA
:102B20007F2D04D890F87432032BE9B203D12046EC
:102B3000FFF759FF85E780F8761200F0BBFC2046CE
:102B400000F08AF91DB1022384F8743279E7012379
:102B5000FAE78978354D01292970E8D890F8743260
:102B6000022B08D0032B14D0FFF73DFF2978204615
:102B7000FFF719FE65E7002989D001210323416091
:102B800080F874322046FFF703FE02287FF47FAFFF
:102B9000CDE731B9022380F874324160FFF703FEBC
:102BA00075E7416801293FF472AFC9B2FFF7FBFD39
:102BB00029786160E6E7CA88012AB8D190F87432B2
:102BC000002BB4D0022B03D9032BB0D1011D03E09D
:102BD0000146002341F8083F204600F011F930E794
:102BE00090F87432013B022BA1D8CB88022B9ED1E6
:102BF0000123C360D0F87C320BB10323C3600222EF
:102C000004F10C01E8E74B88012B7FF41AAFC4F8FC
:102C10007C323CE790F87432013B022B87D84B881A
:102C2000012B7FF40EAF0023F1E700BFFC01002071
:102C300038B50B7803F06003202B04460D4602D014
:102C4000402B00D0B3B994F87432013B022B10D85A
:102C50002B79012B0DD8D4F88C3229469B6820465D
:102C60009847EB881BB910B9204600F0F5F8002012
:102C700038BD2046FFF7B7FEF9E738B50A7802F00D
:102C80006002202A04460B4613D0402A11D06AB9AC
:102C90005D788A88012DD1B21FD035D3032D05D19F
:102CA00090F87422022A26D0032A0AD0FFF79BFE4E
:102CB00005E0D4F88C2219469268204690470020FF
:102CC00038BD5A882AB94A0603D0DB880BB900F010
:102CD000C1FB204600F0C0F8F1E790F87422022A08
:102CE00009D0032AE2D15B88002BE8D14D06F0D051
:102CF00000F0BEFBEDE74B0617D000F0ABFB8021E8
:102D0000204600F0A7FBDAE790F87432022B0ED0D1
:102D1000032BCBD112F0800F4FF0140301F00F0200
:102D200003FB020212D09269DAB92046BEE74906D7
:102D3000FBD113064CBF00F1140100F5A071002374
:102D40000B600222204600F05BF8B8E7D2F844217D
:102D5000002AEAD001F07F0503FB050505F5A07503
:102D600004E001F07F0505FB0335054411F07F0306
:102D700003D12B6002222946E4E7204600F086FBBF
:102D800008B10123F5E72860F4E70B7803704B786E
:102D90004370CA788B7803EB022343804A790B791E
:102DA00003EB02238380CA798B7903EB0223C38070
:102DB000704710B58021044600F04CFB20460021EE
:102DC000BDE8104000F046BB30B588B105462B1A6F
:102DD00015F8014BDBB2002CF9D101335B001380F5
:102DE0000B7003234B700138022310F8015F05B903
:102DF00030BD5A1CD2B2CD540233DBB28C54F4E74E
:102E000010B513460222C0F86C22C3610A46036261
:102E1000002100F05DFB002010BD08B513460A46F6
:102E2000002100F055FB002008BD10B51346032219
:102E3000C0F86C22C0F848310A46C0F84C31002175
:102E400000F054FB002010BD08B513460A460021CF
:102E500000F04CFB002008BD08B50423C0F86C321C
:102E600000231A46194600F033FB002008BD08B5C0
:102E70000523C0F86C3200231A46194600F036FBD1
:102E8000002008BD014B01221A7070473D0200204E
:102E9000134B1B782DE9F041FBB10025DFF84C8086
:102EA000104E114F2C4618F805203019394600F005
:102EB000CFFC01350444102DE4B2F4D10D23335579
:102EC0000134E4B20A2307483355FDF781F9BDE820
:102ED000F04181B2034800F0B1B9BDE8F08100BF14
:102EE0003D0200200D020020303F0008FD010020BF
:102EF00010B5084C084B094A002120461970FDF70F
:102F0000A1FD20461023064A4FF00061BDE81040A5
:102F1000FDF7A0BC500200203D020020852E0008D5
:102F2000FD01002030B595B03022002108A800F046
:102F3000CBFB0021142203A800F0C6FB00241D4B8C
:102F400001941A6C42F080521A641B6C03F0805397
:102F50000193019B184B02941A6842F480421A6054
:102F60001B6803F480430293029B012308934FF4F0
:102F7000803309934FF480030F93082310934FF489
:102F8000A8730225119308A8072313930E95129591
:102F9000FEF71EFB0F2303934FF4A0530693052166
:102FA0004FF4805303A8049505940793FEF7C0FCE3
:102FB00015B030BD003802400070004000B589B047
:102FC0000024394DFDF708FBFFF7ACFF1422002168
:102FD00003A800F079FB00942B6B344843F0800386
:102FE0002B632B6B03F080030093009B01942B6BEE
:102FF00043F008032B632B6B03F008030193019B41
:1030000002942B6B43F001032B632B6B03F0010342
:10301000224602934FF47041029BFDF71BFE4FF4D2
:10302000704303A921480393012304930594069454
:10303000FDF730FD00F0B4F803942B6B1C4843F40B
:1030400080032B632B6B446103F480030393039B86
:10305000184B846180E81800802383604FF400736C
:10306000C3604FF4806303610423436203238362DC
:10307000C4610462C4620463FDF76EFB224621460C
:103080003820FDF7FBFA3820FDF72CFBFFF730FF67
:10309000064C4FF480512046FDF7E1FDC820FDF7B6
:1030A000C7FAFFF7F5FEF4E700380240000C0240D3
:1030B00050020020106402407047000082B00C4BA8
:1030C000002100915A6C42F480425A645A6C02F416
:1030D00080420092009A01911A6C42F080521A6468
:1030E0001B6C03F080530193019B02B0704700BF3B
:1030F000003802407047FEE7FEE7FEE7FEE7704754
:1031000070477047FDF782BA0148FDF7E1BB00BF89
:10311000500200200148FDF74FBE00BF4C150020B3
:1031200008B50A4B1968024609B9094919601868B7
:10313000694602448A4206D900F08CFA0C230360E7
:103140004FF0FF3008BD1A6008BD00BF40020020EC
:10315000581B00200F49D1F8883043F47003C1F8A0
:1031600088300D4B1A68002042F001021A60986006
:103170001A6822F0847222F480321A60074A5A6078
:103180001A6822F480221A60D8604FF000638B60C6
:10319000704700BF00ED00E000380240103000240E
:1031A00008B500220E490F48FFF7D1FA08B1FFF722
:1031B00083FF0D490B48FFF7DFFA08B1FFF77CFFEB
:1031C0000A490848FFF782FA08B1FFF775FF05487A
:1031D000FFF7D9FA18B1BDE80840FFF76DBF08BD89
:1031E0002C010020B0020020080000201C0100205B
:1031F000002070470020704710B5054C014620465E
:10320000FFF773FA2046FFF78FFA002010BD00BFCA
:10321000B002002010B5064C064900222046FFF7F8
:103220005CFA05492046FFF760FA002010BD00BF98
:10323000B00200204C0D00204C05002010B5094CB8
:10324000D4F89032D3F814320A4643B901462046E6
:10325000FFF743FA2046BDE81040FFF74CBA0120C3
:1032600010BD00BFB002002030B5044689B0142262
:10327000002103A800F028FA2368B3F1A04F2ED153
:10328000184C194800250195236B43F00103236373
:10329000236B03F001030193019B4FF4C05303938D
:1032A000022304930323069303A90A230793FDF73C
:1032B000F1FB636B43F0800363630295636C43F43B
:1032C00080436364636C03F48043029343202A4683
:1032D0002946029BFDF7D2F94320FDF703FA09B016
:1032E00030BD00BF003802400000024000F571719F
:1032F000D0F80404FFF75EBA1C2303FB0103D0F8E7
:103300000404D3F80822FFF782BA1C2303FB01034D
:10331000D0F804049A6CFFF7B4BAD0F80404FFF7AD
:1033200045BBC16810B5044621B1022901D0FFF7A1
:10333000C3FE0121D4F80404FFF726FBD4F80404EB
:10334000BDE81040FFF7F9BA10B50446D0F8040400
:10335000FFF71DFB2268D2F8003E43F00103C2F8DC
:10336000003E236A23B1034A136943F00603136145
:1033700010BD00BF00ED00E0D0F80404FFF710BB63
:10338000D0F80404FFF720BBD0F80404FFF71ABB01
:10339000D0F80404FFF71ABBD0F80404FFF718BBF9
:1033A00008B5027832BB144B0421C3F80404C0F8FA
:1033B00098324FF0A04083E8030002211846D960FC
:1033C0001A619961DA611A625A62DA621A63FDF768
:1033D0004DFC08B1FFF770FE80210748FEF7F2F8B8
:1033E000402200210448FEF7CCF880220121024847
:1033F000FEF7C7F8002008BD4C15002008B5D0F82E
:103400009802FDF7BAFC03289ABF024B185C022011
:1034100008BD00BF463F000810B51C46D0F8980212
:1034200013462246FDF796FF03289ABF014B185C0E
:10343000022010BD463F000808B5D0F89802FDF7FD
:10344000BEFF03289ABF024B185C022008BD00BFD4
:10345000463F000808B5D0F89802FEF726F8032882
:103460009ABF024B185C022008BD00BF463F00080F
:1034700008B5D0F89802FEF752F803289ABF024B1D
:10348000185C022008BD00BF463F000811F0800F05
:10349000D0F898324FF01C021BBF01F07F0102FBF5
:1034A000013102FB013191F83E0008BF91F8FE01A5
:1034B0007047000008B5D0F89802FDF737FF0328E1
:1034C0009ABF024B185C022008BD00BF463F0008AF
:1034D00008B5D0F89802FDF7C8FF03289ABF024B41
:1034E000185C022008BD00BF463F000808B5D0F8B0
:1034F0009802FDF78EFF03289ABF024B185C02204A
:1035000008BD00BF463F0008D0F89802FDF7A5BFF0
:1035100012230B80004870474801002004230B80D1
:10352000004870475C010020002330B51D46DCB226
:10353000A24200D830BD040F092C94BF3034373478
:1035400001F8134001EB4304000165700133EEE71D
:103550001A2310B50B80094B186808331B68C01874
:103560000AD0074B07491C680822FFF7DDFF042239
:1035700005492046FFF7D8FF044810BD107AFF1F09
:10358000147AFF1F620100207201002060010020F8
:1035900010B5044C04480A462146FFF715FC2046A6
:1035A00010BD00BF54190020633F000810B5044C43
:1035B00004480A462146FFF707FC204610BD00BF1D
:1035C00054190020763F000810B5044C04480A4600
:1035D0002146FFF7F9FB204610BD00BF541900201B
:1035E0004A3F000810B5044C04480A462146FFF73C
:1035F000EBFB204610BD00BF54190020553F0008CA
:10360000DFF834D0002103E00C4B5B584350043109
:103610000B480C4B42189A42F6D30B4A02E00023A7
:1036200042F8043B094B9A42F9D3FFF793FD00F0AF
:1036300017F8FFF7C3FC704700000220D03F0008D6
:1036400000000020E0010020E0010020581B0020C5
:10365000FEE70000014B1868704700BF7C010020A6
:1036600070B50D4E0D4CA41BA4100025A54209D128
:103670000B4E0C4C00F04CFCA41BA4100025A542E2
:1036800005D170BD56F8253098470135EEE756F85C
:10369000253098470135F2E7C83F0008C83F0008C9
:1036A000C83F0008CC3F0008024B0146186800F0F4
:1036B00061B800BF7C010020024B0146186800F091
:1036C0000BB800BF7C01002002440346934200D1A6
:1036D000704703F8011BF9E738B50546002945D0C6
:1036E00051F8043C0C1F002BB8BFE41800F0D4F8CC
:1036F0001F4A1368104633B9636014602846BDE85A
:10370000384000F0CAB8A3420CD92168621893422D
:1037100004BF1A685B68636004BF521822600460CB
:10372000ECE713465A680AB1A242FAD91968581848
:10373000A0420BD120680144581882421960DDD1A3
:10374000106852685A6001441960D7E702D90C2307
:103750002B60D3E7206821188A4204BF11685268A1
:10376000626004BF091821605C60C7E738BD00BF14
:103770004402002070B5CD1C25F0030508350C2D42
:1037800038BF0C25002D064601DBA94203D90C23C6
:103790003360002070BD00F07FF8234A1468214692
:1037A00091B9224C23681BB9304600F041F82060E3
:1037B0002946304600F03CF8431C26D10C233360E8
:1037C000304600F06AF8E4E70B685B1B1AD40B2B59
:1037D0000FD90B60CD50CC18304600F05EF804F1E4
:1037E0000B00231D20F00700C31A1BD05A42E250E1
:1037F00070BD8C420DBF63684B686360136018BF77
:103800000C46E9E70C464968CAE7C41C24F00304E7
:10381000A04205D0211A304600F00AF80130CDD080
:103820002560D9E770BD00BF440200204802002097
:1038300038B5064C0023054608462360FFF770FCA8
:10384000431C02D1236803B12B6038BD541B0020F8
:103850000EB400B59CB04FF402711DABADF814105E
:10386000029006906FF000410A48049107914FF6CC
:10387000FF7153F8042BADF816100068019302A9EC
:1038800000F068F8029B00221A701CB05DF804EB8F
:1038900003B070477C010020704770472DE9F04766
:1038A0008E689E4282460C469146984635D88A8953
:1038B00012F4906F31D0256809696F1A6569022387
:1038C00005EB450595FBF3F508F101033B449D42EB
:1038D00038BF1D46530531D52946FFF74BFF064635
:1038E00050B90C23CAF80030A38943F04003A381E8
:1038F0004FF0FF30BDE8F0873A46216900F0B4FA96
:10390000A38923F4906343F08003A381266165615A
:103910003E44ED1B2660A5604646464528BF464608
:1039200032464946206800F0AAFAA3689B1BA360B0
:1039300023681E4426600020BDE8F0872A4600F078
:10394000B8FA06460028E1D121695046FFF7C4FEC7
:10395000C7E700002DE9F04F9DB0804603938B89A7
:103960001C060D4616460FD50B696BB94021FFF7B3
:1039700001FF2860286128B90C23C8F800304FF0F7
:10398000FF30C5E040236B610023099320238DF8AD
:10399000293030238DF82A304FF0010B37463C4652
:1039A00014F8013B002B3CD1B7EB060A0BD0534671
:1039B000324629464046FFF771FF013000F0A380F0
:1039C000099B534409933B78002B00F09C80002313
:1039D0004FF0FF3204930793059206938DF853300E
:1039E0001A93052221785048FCF7FAFB671C049BC8
:1039F000D8B9D90644BF20228DF853201A0744BFF6
:103A00002B228DF8532022782A2A16D0079A0021DB
:103A10000A20274601343B78303B092B51D9C9B1E4
:103A200011E0252BC0D02746B9E73F4A801A0BFA90
:103A300000F0184304903C46D3E7039A111D126826
:103A40000391002A01DB079204E0524243F0020393
:103A5000079204933B782E2B0ED17B782A2B07F10B
:103A6000010132D1039B1A1D1B680392002BB8BFC2
:103A70004FF0FF33023705932C4C39780322204650
:103A8000FCF7AEFB38B14023001B03FA00F0049BA7
:103A9000034304930137397825488DF8281006220E
:103AA0007E1CFCF79DFB002835D0224BFBB9039B05
:103AB000073323F0070308330393099B4B4409930F
:103AC0006CE700FB02320121A3E7002305931846AF
:103AD0000A240F4601313A78303A092A03D9002BDB
:103AE000CAD00590C8E704FB00200123F1E703AB2F
:103AF00000932A46104B04A94046AFF30080B0F172
:103B0000FF3F8146D9D1AB895B063FF538AF0998B5
:103B10001DB0BDE8F08F03AB00932A46064B04A905
:103B2000404600F081F8EAE78C3F0008923F000829
:103B3000963F0008000000009D3800082DE9F0477E
:103B400091461F468A680B69DDF820809342B8BF12
:103B50001346C9F8003091F8432006460C4612B1CE
:103B60000133C9F800302368990642BFD9F8003004
:103B70000233C9F80030256815F0060507D104F1B5
:103B8000190AE368D9F800209B1A9D4229DB94F8B2
:103B900043302268003318BF012392062ED404F16B
:103BA000430239463046C047013021D02368E568DA
:103BB000D9F8002003F00603042B08BFAD1AA36850
:103BC00022690CBF25EAE57500259342C4BF9B1A04
:103BD000ED184FF000091A344D451BD10020BDE807
:103BE000F0870123524639463046C047013003D1A1
:103BF0004FF0FF30BDE8F0870135C2E7E1185A1CED
:103C0000302081F84300224494F8451082F8431094
:103C10000233C4E70123224639463046C04701300B
:103C2000E6D009F10109D7E72DE9F04317460A7EEE
:103C300085B06E2A984606460C460C9B01F1430E51
:103C400000F0BC801AD8632A2ED00AD8002A00F0CF
:103C5000C880582A00F08A8004F1420584F8422086
:103C60002AE0642A01D0692AF6D121681A6811F085
:103C7000800F23D0111D1960136827E0732A00F00C
:103C8000B48008D86F2A2AD0702AE5D10A6842F099
:103C900020020A6003E0752A21D0782ADCD178223C
:103CA00084F845206E4964E01A6801F14205111D4F
:103CB0001960136884F842300123A3E011F0400F2B
:103CC00002F104011960D7D0B2F90030002B03DAF9
:103CD0002D225B4284F8432062490A2217E02068C3
:103CE000196810F0800F03D0081D18600B6806E0FB
:103CF00010F0400F01F104001860F7D00B8859490B
:103D00006F2A14BF0A220822002084F84300656845
:103D1000A560002DC0F29C80206820F00400206087
:103D2000002B3FD1002D40F095807546082A0BD11D
:103D30002368DA0708D5236962689A42DEBF302318
:103D400005F8013C05F1FF35AEEB05032361CDF825
:103D500000803B4603AA21463046FFF7EFFE0130C4
:103D600055D14FF0FF3005B0BDE8F08381F8452014
:103D70003C492268186812F0800F00F104051D60AC
:103D800001D0036802E05506FBD50388D00744BF85
:103D900042F0200222601BB9226822F02002226039
:103DA0001022B1E77546B3FBF2F002FB1033CB5C97
:103DB00005F8013D03460028F5D1B7E708681A6801
:103DC000496910F0800F04D0101D18601368196045
:103DD00007E010F0400F02F1040018601368F6D0FD
:103DE0001980002323617546B1E71A68111D196017
:103DF0001568626800212846FCF7F2F908B1401BFB
:103E0000606063682361002384F843309FE723697F
:103E10002A4639463046C0470130A2D023689B0766
:103E200007D5002504F11909E368039A9B1A9D42FE
:103E300005DBE068039B9842B8BF184693E701236F
:103E40004A4639463046C04701308AD00135EBE753
:103E5000002BA7D10B7884F8423004F1420565E7C6
:103E6000AE3F00089D3F000810B5431E0A44914232
:103E700000D110BD11F8014B03F8014FF7E788425C
:103E800010B501EB020303D8421E99420CD110BDBC
:103E90009842F9D28118D21AD34200D110BD13F83A
:103EA000014D01F8014DF7E711F8014B02F8014F00
:103EB000EBE7F8B5074614460E4621B91146BDE8B2
:103EC000F840FFF757BC22B9FFF706FC2546284605
:103ED000F8BD00F014F884420FD921463846FFF7A8
:103EE00049FC05460028F2D031462246FFF7BCFFC8
:103EF00031463846FFF7F0FBE9E73546E7E751F88A
:103F0000040C0028A0F10400BCBF0B58C018704777
:103F1000F8B500BFF8BC08BC9E467047F8B500BFB6
:083F2000F8BC08BC9E46704786
:103F28000006101600061016253032582000000032
:103F3800000000000000010203040607080900024F
:103F4800010243444320436F6E666967004344435C
:103F580020496E746572666163650053544D6963E8
:103F6800726F656C656374726F6E69637300535426
:103F78004D3332205669727475616C20436F6D50F1
:103F88006F727400232D302B2000686C4C0065661E
:103F98006745464700303132333435363738394192
:103FA80042434445460030313233343536373839A8
:083FB8006162636465660000AC
:083FC000F0C2FF7F01000000C8
:043FC800B501000837
:043FCC009101000857
:103FD000010000001000000023260008E125000871
:103FE00025250008000000005D240008E3240008E7
:103FF000B5240008000000000000000000000000E0
:1040000091240008852400089D240008A9240008A4
:1040100009024300020100C032090400000102024B
:1040200001000524001001052401000104240202FE
:104030000524060001070582030800100904010099
:10404000020A000000070501024000000705810286
:104050004000000009024300020100C032090400D0
:1040600000010202010005240010010524010001E5
:10407000042402020524060001070582030800103B
:1040800009040100020A0000000705010200020005
:1040900007058102000200000A060002000000403D
:1040A0000100000009074300020104C032090400B6
:1040B0000001020201000524001001052401000195
:1040C00004240202052406000107058203080010EB
:1040D00009040100020A0000000705010240000077
:1040E00007058102400000000024F400153200089A
:1040F000F1310008F5310008F931000811350008E8
:104100001D35000891350008AD350008513500080F
:10411000C9350008E535000812010002020200401E
:104120008304405700020102030100000403090454
:104130001A03000000000000000000000000000062
:1041400000000000000000000000000080010020CE
:10415000000000000000000000000000000000005F
:10416000000000000000000000000000000000004F
:10417000000000000000000000000000000000003F
:10418000000000000000000000000000000000002F
:10419000000000000000000000000000000000001F
:1041A000000000000000000000000000000000000F
:0400000508003601B8
:00000001FF
